:020000040800F2
:10000000005000200D01000800000000000000006A
:1000100009010008090100080901000800000000AA
:1000200000000000000000000000000009010008BE
:10003000090100080000000009010008510700083C
:100040000901000809010008090100080901000868
:10005000090100080901000895060008BD0600080E
:10006000E5060008E9060008ED0600080901000899
:100070000901000809010008090100080901000838
:100080000901000809010008090100080901000828
:100090000901000809010008090100080901000818
:1000A0000901000809010008090100080901000808
:1000B00009010008090100080901000809010008F8
:1000C00009010008090100080901000809010008E8
:1000D00009010008090100080901000809010008D8
:1000E00009010008090100080901000800000000DA
:1000F0000000000000000000000000000000000000
:100100000000000000000000FEE700BF684620F08D
:1001100007018D46104A114B01B59A420DD2D043CA
:100120000F4918440B4620F003000430084453F8EC
:10013000041B834242F8041BF9D10B480B494FF0D2
:1001400000028842B8BF40F8042BFADB054B984701
:10015000BDE80140854670470000002050000020A7
:10016000D01A00082914000850000020D8000020F0
:1001700010B50C4B984701200B4C0146A0470420BA
:100180000121A04708200121A04710200121A047FC
:100190004FF480400121A047044B9847044B9847F7
:1001A00010BD00BFB501000849020008CD030008DA
:1001B0004D05000810B4214B002483B001941C6845
:1001C0001F4A44F48034194610461C6003E003685B
:1001D000B3F5A06F09D10B6803F4003301931368E2
:1001E00001331360019B002BF1D0144B15481946C5
:1001F000026842F0020202605A685A605A685A6005
:100200005A6842F400425A605A6842F488125A60AE
:100210001A6842F080721A600B68084A9B01FBD58D
:100220001146536843F0020353604B6803F00C031C
:10023000082BFAD103B05DF8044B70470010024060
:100240005000002000200240044A936919B923EAB3
:1002500000009061704718439061704700100240A1
:10026000234A30B4536803F00C03042B38D0082B16
:1002700025D00BB31F4A134602601D4A1E4C51681D
:100280001E4DC1F30311615CCB4043605168C1F363
:100290000221615C23FA01F181605168C1F3C2213E
:1002A000615CCB40C3605268C2F38132AA5C30BC4F
:1002B000B3FBF2F3036170470E4B0360DDE7536855
:1002C0005168C3F38343C90303F102030BD552689A
:1002D00092034CBF0A4A0B4A02FB03F30360CCE7CC
:1002E000084B0360C9E7084A02FB03F30360C4E755
:1002F0000010024000127A000400002000000020DC
:10030000808D5B00001BB70000093D002DE9F04126
:10031000CD78EB0648BF8B78098805F00F0E48BFF3
:100320004EEA030E11F0FF0F21D0066800230127CB
:100330004FF00F0802E00133082B17D007FA03F241
:1003400002EA01049442F6D19A0008FA02FC26EA75
:100350000C060EFA02F2282D46EA020631D0482D8C
:1003600003F1010308BF0461082BE7D10660FF29F0
:1003700023D94668002301274FF00F0C02E0013318
:10038000082B19D003F1080207FA02F202EA01046D
:100390009442F4D19A000CFA02F826EA08060EFA02
:1003A00002F2282D46EA020609D0482D03F1010386
:1003B00008BF0461082BE5D14660BDE8F0814461C7
:1003C000DDE727FA03F24261B5E700BFF0B5284E3A
:1003D00083B04FF400720427264C0325304601A950
:1003E0001823ADF804208DF807308DF80650A0478B
:1003F00030460DEB07014FF48063ADF804308DF803
:1004000006508DF80770A04730460DEB0701012319
:10041000ADF804308DF80770A04730460DEB0701AA
:100420000223ADF8043010268DF80770A0470DEBBD
:1004300007014FF448731048ADF804308DF80650AA
:100440008DF80760A0470D4B984740F2FF130DEB66
:1004500007010B48ADF804308DF806508DF80760A1
:10046000A047084B9847084B984703B0F0BD00BF22
:10047000000801400D030008000C0140D5070008EA
:10048000001001406D0800087D08000870B50446A2
:100490000D46038ACA889BB223F440531343038258
:1004A00082898B88088992B24989034322F4B05229
:1004B0000B4322F00C0213439BB2A381A38AAA89A7
:1004C0009BB223F4407386B01343A38201A81C4B54
:1004D00098471C48039B0499A289844208BF0B4695
:1004E00012B2002A2A6803EB8303B4BF52009200C1
:1004F00003EB8303B3FBF2F3134EA589A6FB0320A2
:100500002DB240096422002D00FB12334FEA001087
:100510000ADB1A013232A6FB0223C3F3431303435F
:100520009BB2238106B070BDD9003231A6FB0131E8
:10053000C1F3421242EA00039BB2238106B070BDB0
:1005400061020008003801401F85EB5170B50E4C68
:1005500084B000234FF4E13620460C2569460B4A4F
:10056000ADF80430ADF80630ADF80830ADF80C3019
:100570000096ADF80A509047A3899BB243F400530C
:10058000A38104B070BD00BF003801408D04000895
:10059000104B30B4DA688178D2434378C2F3022238
:1005A0000F24D440C2F1040503FA05F204EA010362
:1005B0001343094902781B01DBB20A4482F8003375
:1005C0000378012203F01F0082405B0941F82320D9
:1005D00030BC704700ED00E000E100E070B5114A6A
:1005E000114B82B04FF0006199600025DA60012460
:1005F00001A806230D4E8DF804308DF805508DF8B6
:1006000006508DF80740B047072301A88DF8055024
:100610008DF806408DF807408DF80430B04702B0E1
:1006200070BD00BF0007FA0500ED00E0910500086D
:1006300070B40468164BE6431D68027935401D60AE
:10064000596802F180423140596002F582321568E2
:1006500041792C43146002689C68D5432C409C600F
:10066000D868102900EA0500D86008D070BC01F1F4
:10067000804303F5823319680A431A60704799680A
:1006800070BC11439960D9680A43DA60704700BFB3
:100690000004014008B5064B19685A69D00706D511
:1006A000CA0704D501225A610248034B984708BD86
:1006B00000040140C01400085D09000808B5064B9D
:1006C00019685A69900706D58A0704D502225A612B
:1006D0000248034B984708BD00040140DC140008A1
:1006E0005D090008704700BF704700BF704700BF3A
:1006F0002DE9F041144C82B0A368012523F00F03CB
:10070000A360A3686846A3604FF000080C270F4E53
:1007100000958DF806508DF804808DF80570B0476F
:10072000A368684623F0F003A360A2680223A260D6
:100730008DF804808DF805708DF806500093B04751
:1007400002B0BDE8F08100BF0000014031060008A2
:10075000704700BF024A536943F400735361704706
:10076000000C0140024A136943F40073136170479F
:10077000000C0140024A536943F020035361704763
:10078000000C0140024A136943F0200313617047D3
:10079000000C0140024A536943F48073536170476F
:1007A000000C0140024A136943F4807313617047DF
:1007B000000C0140064B5A6942F400725A615A69B2
:1007C00042F020025A615A6942F480725A617047BD
:1007D000000C0140064B1A6942F400721A611A6952
:1007E00042F020021A611A6942F480721A6170475D
:1007F000000C014070B5064600282AD0154D164C55
:10080000236943F400732361636943F02003636148
:10081000636943F480736361A847636943F40073B9
:100820006361236943F020032361636943F48073A8
:100830006361A847636943F400736361636943F0CC
:1008400020036361236943F480732361A847013E59
:10085000D6D170BDB50D0008000C014008B51E20B2
:10086000014B984708BD00BFF5070008024A5369CD
:1008700043F480735361704700100140024A1369CA
:1008800043F0FF0313617047001001400A2810B5C0
:10089000044606D0054A13681B06FCD5044B1C60B1
:1008A00010BD0D20FFF7F2FFF4E700BF0038014054
:1008B00004380140034A13689B06FCD5024B1868B4
:1008C000C0B27047003801400438014010B40278CB
:1008D00082B10B78ABB19A4208BF4C1C05D012E034
:1008E00014F8013B6BB19A420DD110F8012F21464B
:1008F000002AF5D1087808B10022101A5DF8044BDF
:1009000070470020F9E7D01A5DF8044B704700BF2C
:10091000E8B10378DBB100230B600278E2B130B4B8
:10092000A2F13004E2B2092A02D912E0092D10D84E
:1009300003EB830304EB43030B6010F8012FA2F1D8
:100940003004E5B2002AF1D1012030BC704700200C
:100950007047002030BC7047012070470FB42DE96C
:10096000F04F89B00DF14808C64E58F8045B28785E
:10097000A0B3252837D108AC04F8180D21466B1C0C
:1009800005F10A0C5F1B9E4613F8010BA0F16302F0
:10099000012A40F29580782800F09280732800F0B8
:1009A0008F80252800F08C8063451A4601F8010FDE
:1009B000E8D19EF80100551C642800F08F8015D8FE
:1009C000252800F00C816328D1D198F80000B047A9
:1009D000287808F10404A0460028CAD109B0BDE86F
:1009E000F04F04B07047B0470135C0E7732800F0FE
:1009F000F8807828BBD1D8F800A09DF808300027EF
:100A0000CDF800A008F104080197002B00F0FF804A
:100A1000782B00F0FC80BB46B946A3F13102082ACE
:100A20004AD814F80B3004EB0B01A3F13002092A69
:100A300000F24F8105A8864600220EF8013B11F80E
:100A4000013F0BF1010BA3F1300CBCF1090F02F1D6
:100A50000102F2D908AB1A4401A98B4B02F80C9C95
:100A60000BF1FF3B98470BF1010B08AB5B4413F80C
:100A7000183C0BB1782BD0D1019B9AFA8AF20092E4
:100A8000002B00F0C780DA0740F12C81C3F1070387
:100A900003EBD37308AA02EB630313F8203C13F0B3
:100AA0000F0300F05A81092B40F2758103F13700E2
:100AB000B0474FF0000955E1302B08BF0127D2E7BE
:100AC000724608AB1F4464284FF0000307F8180C67
:100AD00007F8173C02F101057FF471AF9DF808306B
:100AE0000022019208F1040AD8F800B0002B00F0AF
:100AF000C480642B00F0C180904617469146A3F154
:100B00003102082A7ED8E35DE119A3F13002092AF7
:100B100000F2DC8005A8864600220EF8013B11F8A1
:100B2000013F0137A3F1300CBCF1090F02F10102C2
:100B3000F3D908AB1A4401A9534B02F80C9C013FAE
:100B40009847013708AB3B4413F8183C0BB1642BB2
:100B5000D5D10198002800F09080092840F3BC808E
:100B600009200190062207210A23013903EB8303A0
:100B70004C1C4FEA4303F8D19BFBF3F7022803FB1D
:100B800017B700F0068113460A24013B04EB8404E6
:100B9000591C4FEA4404F8D143464FF00109A846D6
:100BA0001D4610E0012C16D0B9F1000F13D03020F3
:100BB00005B92020B047354B83FB0423E417C4EB71
:100BC000A304002C7FDD97FBF4F3D8B2303004FB94
:100BD0001377002BE6D0B0474FF00009EBE7B047A2
:100BE000C5E6D8F8004008F10408002C3FF4BFAE79
:100BF000207800283FF4BBAEB04714F8010F00285E
:100C0000FAD1B4E6302B08BF4FF0010899E79AFA01
:100C10008AF30093E94619F8013B012203F00F041F
:100C20001B094FF0000719D0092B88BF03F13700CB
:100C300040F2B780B0470023B4B9032F00F0B4806E
:100C40000122002B00F0B0800137042F3FF48FAE5B
:100C500019F8013B03F00F041B09E5D1002A00F04D
:100C6000A0800123002CE8D0092C88BF04F13700B4
:100C700040F29A80B0470022E6E70A270122044C9E
:100C800013E000BF8D08000811090008676666665A
:100C900000CA9A3BB0470022454B013F83FB041337
:100CA0004FEAE474C4EBA3040ED09BFBF4F3D8B278
:100CB000303004FB13BB002BECD1012CEAD0002A0E
:100CC000E8D00122E8E74546D04650E6002205A8D4
:100CD0002FE7002205A8BDE60128A0F102014AD0B5
:100CE000C21E41E74FF00109C3F1080303EBD373C0
:100CF0004FEA630ABAF1030F3FF739AEAB46EA4455
:100D000001AC1AF8013B03F00F051B0909D0092BB0
:100D100088BF03F1370041D9B0477DB905F13000F4
:100D200010E0B9F1000F39D087B13020B0472DB9AC
:100D30003020B047A245E4D15D4618E6092DEDD933
:100D400005F13700B0474FF00009F3E72020B04726
:100D5000002DF3D12020B047ECE73FB13020B04761
:100D60004FF00109019B013B0193BDE72020B047F3
:100D70004FF00109F6E70E4B83FB0B374FEAEB739D
:100D8000C3EBA70707EB8703ABEB43076FF0010348
:100D9000FAE60A2400E703F1300089E603F13000A7
:100DA000BAE703F1300045E704F1300062E700BF25
:100DB00067666666014B013BFDD17047A8137B0057
:100DC00008B50248024B9847012008BDF8140008F6
:100DD0005D09000838B50D4614460448044B984791
:100DE00028462146034B9847012038BD08150008C6
:100DF0005D090008BD10000870B4002426460D1FD0
:100E0000024610F8013B202BFAD0092BF8D01046EF
:100E1000ABB145F8042F137801342BB90EE0092B40
:100E200004D010F8013F4BB1202BF8D1142C0670E0
:100E300000F10100E4D1204670BC70470023204639
:100E400041F8243070BC704708B520B10146044B0E
:100E50000448984708BD0448014B984708BD00BFA7
:100E60005D09000888150008181500082DE9F047ED
:100E70004F1E002F23DD002481462546DFF87C80AD
:100E8000DFF870A007E029B309F80510D047354610
:100E90000134A74213DDC0470D28014605F10106C4
:100EA00011480ED00A290CD00829ECD10F48002D8A
:100EB000EFD0013CD047A74205F1FF35EBDCBDE8A0
:100EC000F087002309F8053009480A4B9847204667
:100ED000BDE8F087084C06482268064B09F8021066
:100EE00098472068BDE8F087241500082015000801
:100EF0008C1600085D09000854000020B5080008A1
:100F0000012838B505D009680B480C4B98470120DB
:100F100038BD0B48094D0B4CA8470B48A847236820
:100F200033B1206900B1A84754F8143F002BF8D121
:100F30000648A847012038BD741500085D0900085F
:100F4000281500081400002054150008701500082A
:100F50002DE9F04F244F254E254DDFF8BC90254C50
:100F600095B02548B847214880214FF46162A847D1
:100F70003378002BF5D069461C48204B9847D9F8A8
:100F800000108046DFF890A049B10098A04710B942
:100F9000DAF80430EBB95AF8141F0029F5D100989B
:100FA0001749DFF850B0A04770B100981549D847ED
:100FB00050B1DAF800308BB100981349A0470028EF
:100FC000CFD115B0BDE8F08F404669460F4B98472A
:100FD000F2E7504641466A469847E0E70C480099D8
:100FE0000C4B9847E8E700BF490E00085800002066
:100FF0006D0E0008CD08000818150008F90D00084E
:101000008C15000894150008B4150008010F00089D
:10101000981500085D0900081400002070B5164EF0
:10102000164D174C3046A0472846A0471548A04704
:101030002846A0471448A0471448A0471448A04792
:101040001448A0471448A0471448A0471448A04794
:101050001448A0471448A0471448A0472846A04772
:101060001348A0472846A0473046A0471148A0474C
:10107000114B984770BD00BF70150008CC150008D3
:101080005D09000800160008201600085816000820
:1010900090160008C8160008041700083C1700083E
:1010A00074170008AC170008F0170008241800088F
:1010B000581800086C180008B5080008012870B519
:1010C00028DD0C460868A24DA249A847E8B160682F
:1010D000A149A847002800F0008160689F49A847FF
:1010E000002840F0FF809E4861689E4EB047A0688F
:1010F0009849A847002800F02681A0689649A8478B
:1011000030B9A1689848B04702E09848954B984795
:10111000002070BD964C934DA0470028F8D0303881
:101120004128F9D801A353F820F000BFD1120008DC
:10113000C7120008BD120008B3120008A912000867
:101140009F120008951200088B12000881120008F7
:101150007712000819110008191100081911000868
:1011600019110008191100081911000819110008B7
:1011700019110008191100081911000819110008A7
:101180001911000819110008191100081911000897
:101190001911000819110008191100081911000887
:1011A0001911000819110008191100081911000877
:1011B0001911000819110008191100081911000867
:1011C0001911000819110008191100081911000857
:1011D0001911000819110008191100081911000847
:1011E0001911000819110008191100081911000837
:1011F000711200086B120008651200085F120008E7
:1012000059120008531200084D1200084712000836
:10121000411200083B12000835120008191100089D
:1012200019110008191100081911000819110008F6
:10123000111100084F48A8476EE74F48A8476BE7D1
:101240004E48A84768E74E48A84765E74D48A84775
:1012500062E74D48A8475FE74C48A8475CE74C4821
:10126000A84759E74B48A84756E74B48A84753E7D4
:101270004A48A84750E74A48A8474A4B98474BE78F
:101280004948A847494B984746E74948A847494B2A
:10129000984741E74848A847484B98473CE74848A3
:1012A000A847484B984737E74748A847474B9847D0
:1012B00032E74748A847474B98472DE74648A84795
:1012C000464B984728E74648A847464B984723E7A8
:1012D0004548A847454B98471EE74548214B984746
:1012E000002070BD60684349A847C8B160684249A2
:1012F000A84700287FF40CAF40486168194EB047FA
:10130000A0681449A847002800F08680A068124908
:10131000A84700287FF4FCAEA1683948B047F7E63B
:10132000384861680F4EB047A0680A49A8470028AE
:101330006ED0A0680849A84700287FF4E9AEA168EC
:101340003148B047E4E6A1683048B047E0E600BF66
:10135000CD0800088C180008A8180008C418000858
:10136000C81800085D090008E8180008901800086F
:101370001D1000082C1A0008241A00081C1A000866
:10138000141A00080C1A0008041A0008FC190008B6
:10139000F4190008EC190008E4190008DC19000829
:1013A000CC190008B5070008C41900086514000826
:1013B000BC1900085D080008B4190008A50700085A
:1013C000AC19000895070008A41900088507000853
:1013D0009C190008750700089419000865070008A3
:1013E0008C19000855070008D4190008D507000813
:1013F000AC18000800190008401900084819000836
:10140000701900080419000828190008D0180008ED
:10141000A1680348B0477BE6A1680248B04777E679
:10142000101900085419000808B5074B9847074BD6
:101430009847074B9847074B98470748074B9847EB
:10144000074B9847002008BD71010008DD05000822
:10145000F106000865140008341A00085D09000848
:10146000510F000810B50D4B86B00D4C19680D4892
:10147000A0470D4B01A8984701990C48A047029935
:101480000B48A04703990B48A04704990A48A04776
:101490000A480599A04706B010BD00BF50000020C3
:1014A0005D090008401A000861020008581A000887
:1014B000701A0008881A0008A01A0008B81A000854
:1014C0004C4546542D574B555020427574746F6EE1
:1014D00020507265737321210A0000005249474869
:1014E000542D574B555020427574746F6E205072B6
:1014F00065737321210A00000A54686973206973B7
:1015000020746573740A00000A5468697320697353
:10151000206C65640A0000003E3E3E200000000092
:1015200008200800256300000A54686520666F6C77
:101530006C6F77696E6720636F6D6D616E6420619B
:10154000726520737570706F72746564203A200A3A
:101550000000000048656C70203A2048656C7020DF
:10156000666F7220636F6D6D616E64732E200A006A
:101570000A0A00000A0920556E6B6E6F7720636FB0
:101580006D6D616E64203A2025730A0068656C7089
:10159000000000003F0000000A0920556E6B6E6FCE
:1015A000776E20436F6D6D616E64203A2025732045
:1015B0000A000000656E640074657374000000002A
:1015C0006C65645F6D656E75000000002D2D2D2D1E
:1015D0002D2D2D2D2D2D2D2D2D2D2D2D2D2D2D2D3B
:1015E0002D2D2D2D2D2D2D2D2D2D2D2D2D2D2D2D2B
:1015F0002D2D2D2D2D2D2D2D2D2D2D2D2D0A000098
:1016000020202020202020202020202020202020DA
:10161000204C4544204D41494E204D454E550A0031
:1016200020312E20526564204F6E20202020202063
:1016300020202020202020202020202020202020AA
:10164000202020202020202020202020202020209A
:101650002020200A0000000020322E205265642045
:101660004F666620202020202020202020202020BF
:10167000202020202020202020202020202020206A
:101680002020202020202020202020200A000000D0
:1016900020332E2059656C6C6F77204F6E202020F0
:1016A000202020202020202020202020202020203A
:1016B000202020202020202020202020202020202A
:1016C0002020202020200A0020342E2059656C6C18
:1016D0006F77204F666620202020202020202020A9
:1016E00020202020202020202020202020202020FA
:1016F0002020202020202020202020202020200A00
:101700000000000020352E20426C7565204F6E20B1
:1017100020202020202020202020202020202020C9
:1017200020202020202020202020202020202020B9
:1017300020202020202020200A00000020362E20FB
:10174000426C7565204F66662020202020202020D6
:101750002020202020202020202020202020202089
:101760002020202020202020202020202020202079
:10177000200A000020372E204C65642054657374C5
:101780002020202020202020202020202020202059
:101790002020202020202020202020202020202049
:1017A0002020202020202020200A000020382E2069
:1017B00053797374656D5F496E666F726D6174699C
:1017C0006F6E20202020202020202020202020207C
:1017D0002020202020202020202020202020202009
:1017E00020202020202020202020200A000000008F
:1017F00020392E20546573742020202020202020A2
:1018000020202020202020202020202020202020D8
:1018100020202020202020202020202020202020C8
:10182000200A000020302E205465737420202020D0
:1018300020202020202020202020202020202020A8
:101840002020202020202020202020202020202098
:1018500020202020200A000020712E204C4544200A
:101860004D656E7520515549540A000053454C454D
:1018700043542054484520434F4D4D414E44204E43
:10188000554D424552203A20000000006368310067
:101890004C454420636F6D6D616E64206D656E759F
:1018A000206368310A000000636832004C45442020
:1018B000636F6D6D616E64206D656E752063683257
:1018C0000A0000006F6E00000A4F4E2025730A00C8
:1018D0000A6F6E20617267765B325D203A20257355
:1018E000206368310A0000000A6F6E20617267761B
:1018F0005B325D203A202573206368320A000000C5
:101900006F6666000A4F46462025730A00000000F5
:101910000A6F666620617267765B325D203A202529
:1019200073206368310A00000A6F6666206172677F
:10193000765B325D203A202573206368320A00000E
:1019400073746174650000000A53544154452025A6
:10195000730A00000A737461746520617267765BB4
:10196000325D203A202573206368310A00000000B0
:101970000A737461746520617267765B325D203A28
:10198000202573206368320A000000004E6F2E315C
:101990000A0000004E6F2E320A0000004E6F2E33F8
:1019A0000A0000004E6F2E340A0000004E6F2E35E4
:1019B0000A0000004E6F2E360A0000004E6F2E37D0
:1019C0000A0000004E6F2E380A0000004E6F2E39BC
:1019D0000A0000004E6F2E300A0000004E6F2E618C
:1019E0000A0000004E6F2E620A0000004E6F2E6348
:1019F0000A0000004E6F2E640A0000004E6F2E6534
:101A00000A0000004E6F2E660A0000004E6F2E671F
:101A10000A0000004E6F2E680A0000004E6F2E690B
:101A20000A0000004E6F2E6A0A0000004E6F2E6BF7
:101A30000A00000074657374696E67210A00000073
:101A400053746172745570436F756E746572203A89
:101A50002025640A00000000535953434C4B5F4655
:101A600072657175656E6379203D2025640A0000FA
:101A700048434C4B5F4672657175656E6379203DD6
:101A80002025640A0000000050434C4B315F467231
:101A9000657175656E6379203D2025640A0000003C
:101AA00050434C4B325F4672657175656E637920A9
:101AB0003D2025640A000000414443434C4B5F46EF
:101AC00072657175656E6379203D2025640A00009A
:101AD00002040608000000000000000001020304E8
:101AE00006070809B8150008C10D0008000000002D
:101AF0000000000000000000C0150008D50D00081F
:101B000000000000000000000000000000000000D5
:101B100000000000000000000000000000000000C5
:040000050800010DE1
:00000001FF
